:020000040800F2
:10000000500400201D0F0008C50F0008C70F00088E
:1000100000000000000000000000000000000000E0
:10002000000000000000000000000000CB0F0008EE
:100030000000000000000000CD0F0008CF0F0008F6
:10004000230900086B0D0008A30F0008AF0F00087C
:10005000DD0F0008DF0F0008E10F0008A105000810
:10006000E30F0008E50F0008E70F0008E90F00089C
:10007000EB0F0008ED0F0008EF0F0008F10F00086C
:10008000F30F0008F50F000800000000F70F00084C
:10009000F90F0008FB0F0008FD0F0008FF0F000814
:1000A00001100008031000080510000807100008E0
:1000B00009100008000000000B10000800000000FC
:1000C00000B50100002000E0401CC0B2112808D299
:1000D000214AC0B2125C0B00DBB29A42F4D1C0B22A
:1000E00000E0112000BD10B50400A078FFF7E8FF84
:1000F0001A490870E078FFF7E3FF18494870207943
:10010000FFF7DEFF154988706079FFF7D9FF1349C3
:10011000C8701248007811280BD210484078112876
:1001200007D20E488078112803D20C48C0781128D5
:1001300000D30FE0094800780849497809014018C0
:1001400006498978090240180449C978090340180A
:100150000349088010BD000004000020300000208A
:100160003E000020F0B58FB00121E020000300F038
:10017000BBFAFF20C001BC4908600020BA490871E1
:100180000320B94948710020B749C871B649B7483A
:1001900000F0D0FAB648B44908600120B2490871AD
:1001A0000320B14948710020AF4988710120AE4950
:1001B000C871AD49AD4800F0BDFA0320AA490860F6
:1001C0000120A94908710020A74948710020A649CB
:1001D00088710120A449C871A349E94800F0AAFA2E
:1001E0000021A24800F017FB01220121E44800F0A1
:1001F00009FB01220221E24800F004FB0121C0209A
:10020000C00200F071FAF82000010290022002A959
:100210000871032002A94871002002A988710120F9
:1002200002A9C87102A99020C00500F083FA022239
:1002300008219020C00500F0F0FA02220921902048
:10024000C00500F0EAFA02220A219020C00500F061
:10025000E4FA02220B219020C00500F0DEFA02220F
:1002600007219020C00500F0D8FAC6480068C649AA
:100270000880C5480088401E0A2100F0FBFAC349E7
:100280000880C1480088401E142100F0F3FAC049DC
:100290000880BD480088401E0F214843C82100F057
:1002A000E9FABC490880B8480088401E7D214843CF
:1002B000FA21890000F0DEFAB74908800121802088
:1002C000000100F021FA21206946888500200BA951
:1002D0004880AD4800880C9000200BA908810020C0
:1002E0000BA988720BA9AD4800F01CFB7020694671
:1002F0000883012006A94880042006A98880A34815
:1003000000880890022006A98881002006A9C881DB
:100310008020400006A90882002006A9488206A97C
:100320009E4800F054FB9A480088089006A99B4814
:1003300000F090FB97480088089006A9974800F0C5
:10034000C6FB95480088089006A9944800F0F8FB81
:100350000121924800F014FB0121904800F024FB99
:100360000121012000F0D0F90721012000F03AFC22
:100370000821012000F036FC0921012000F032FCA8
:100380000A21012000F02EFC0B21012000F02AFCA4
:100390000C21012000F026FC0D21012000F022FCA0
:1003A0000E21012000F01EFC80200490002004A9F2
:1003B0000871102004A94871012004A9887104A8BB
:1003C00000F03CFC072069460871052001A948702F
:1003D000012001A9887001A800F08CFC802149004F
:1003E000224800F0F7F969460870802189001F480B
:1003F00000F0F0F907008021C9001C4800F0EAF97C
:10040000060080210901194800F0E4F90400802168
:100410004901164800F0DEF90500802189011348E2
:1004200000F0D8F969460978FFB27A008918F6B267
:10043000B2008918E4B2E2008918EDB22A018918E5
:10044000C0B240010C188021C901084800F0C2F96F
:10045000800120189449087015E0012280210902CA
:10046000024800F0CFF97BE01C00002000040048A7
:100470007F80000009208D4908608D48FFF733FE1A
:1004800000208C4908708B4800780A28F5D280211A
:100490004900894800F09EF969460870802189006A
:1004A000854800F097F907008021C900824800F0D4
:1004B00091F90600802109017F4800F08BF90400C2
:1004C000802149017C4800F085F9050080218901DF
:1004D000794800F07FF969460978FFB27A008918F7
:1004E000F6B2B2008918E4B2E2008918EDB22A012E
:1004F0008918C0B240010C188021C9016E4800F073
:1005000069F9800120186D4908706C4800786649C7
:100510000978884202D00A20644908606748007858
:100520006149097841406248624A127881546348BF
:1005300000785D490870802109025F4800F056F993
:100540005F490870802109025B4800F04FF90028DC
:1005500000D182E7002280210902574800F052F9B9
:10056000534854490978405C5649097C884200D177
:1005700080E750480078401C4E49087083E700002F
:100580000008004818000020340000203600002039
:10059000380000203A0000203C000020002C0140E0
:1005A00080B58020400000F08CFB00280AD080201D
:1005B000400000F092FB802149003F4800F00AF91A
:1005C000414908708020800000F07BFB00280AD0A1
:1005D0008020800000F081FB80218900364800F0F7
:1005E000F9F83A4908708020C00000F06AFB002842
:1005F0000AD08020C00000F070FB8021C9002E4886
:1006000000F0E8F8324908708020000100F059FB42
:1006100000280AD08020000100F05FFB8021090142
:10062000254800F0D7F82B4908708020400100F0E1
:1006300048FB00280AD08020400100F04EFB8021BA
:1006400049011D4800F0C6F8234908708020800148
:1006500000F037FB00280AD08020800100F03DFB2D
:1006600080218901144800F0B5F81C4908708020E9
:10067000C00100F026FB00280AD08020C00100F055
:100680002CFB8021C9010C4800F0A4F81449087023
:10069000802000F016FB002805D0802000F01DFB14
:1006A00001201049087001BD470000200000002013
:1006B000240000204B0000200004004848000020D7
:1006C00049000020040000204000002041000020DC
:1006D000420000204300002044000020450000208C
:1006E000460000204A00002000B5C9B2002905D00C
:1006F0000E49096808430D49086004E00B49096880
:1007000081430A48016000BD00B5C9B2002905D087
:100710000749096808430649086004E00449096874
:1007200081430348016000BD000000001410024036
:100730001810024070B5002200220022002246E07C
:10074000012393400C681C409C423FD10B79012B44
:1007500002D00B79022B19D18368032415000226DD
:100760007543AC40A343836083684C79150002262F
:100770007543AC401C438460838801249440A343A8
:10078000838083888C7994401C438480036803248D
:10079000150002267543AC40A343036003680C793F
:1007A000150002267543AC401C430460C368032453
:1007B000150002267543AC40A343C360C368CC79DF
:1007C000150002267543AC401C43C460521C102A1D
:1007D000B6D370BD00B50022008A89B2014000295D
:1007E00001D0012000E00020C0B200BD00B5002211
:1007F000808A89B20140002901D0012000E0002058
:10080000C0B200BD00B5D2B2002A02D089B2816167
:1008100000E0018500BD81827047F0B40023002311
:10082000D2B20B005B075B0F042463439A4089B28A
:10083000CB1004246343C31889B2CC1004256C4345
:100840000419246A0F250E007607760F04277E43CD
:10085000B540AC431C6289B2CB1004246343C31877
:100860001B6A1A4389B2C910042359434018026213
:10087000F0BC70470022030A8B420BD203098B4263
:1008800019D243088B422ED2411A00D2014652415E
:1008900010467047FF2209023FD012068B4205D353
:1008A000121209028B4201D31212090203098B4270
:1008B00019D300E0090AC3098B4201D3CB01C01A46
:1008C000524183098B4201D38B01C01A5241430923
:1008D0008B4201D34B01C01A524103098B4201D311
:1008E0000B01C01A5241C3088B4201D3CB00C01A7E
:1008F000524183088B4201D38B00C01A52414308F6
:100900008B4201D34B00C01A5241884200D3401A97
:100910005241CFD201461046704708B500F024FA84
:1009200008BDFEE700B5002202881C4B984206D0A5
:100930008023DB05984202D0194B984203D1434BE8
:1009400013404A881A43174B984203D0404B134038
:100950000A891A4302804A68C2620A8802850F4ADD
:10096000904208D0374A904205D0374A904202D090
:10097000724A904201D1897A01860121818200BDAB
:1009800000B5C9B2002904D0018801220A430280BF
:1009900003E001887F4A0A40028000BD002C01402C
:1009A000000400400010004000B5C9B2002907D083
:1009B0004421415A802212020A434421425205E056
:1009C0004421415A4904490C4422815200BD70B56A
:1009D000002200220022028C6E4B13400384038C01
:1009E0008288048B194D25406C4E2E400C88344370
:1009F000674D1D408E892E434B8833436A4DA84274
:100A000008D0104DA84205D00F4DA84202D04B4D42
:100A1000A8420FD1634D1D40CB892B435E4D1D4035
:100A20008B882B43614D1540664A2A400D8A154339
:100A30004A8A2A438280048389684163038470BDA3
:100A40000000000000400140004401408FFF000012
:100A5000FFFC000070B5002200220022028C544BE3
:100A600013400384038C8288048B524D2540524EE0
:100A70002E400C8824023443504D1D408B891E01AA
:100A80002E434B881B013343474DA84202D04C4DA7
:100A9000A84216D14C4D15400A8A92002A43424D75
:100AA000A8420ED13E4D1D40CB891B012B43474D23
:100AB0001D408B881B012B43464D15404A8A9200EE
:100AC0002A438280048389688163038470BD70B582
:100AD000002200220022028C344B13400384038C3A
:100AE0008288848B3A4D25402C4E2E400C8834430E
:100AF000344D1D408B891E022E434B881B0233430D
:100B0000294DA84213D1334D1D40CB891B022B43E5
:100B10002D4D1D408B881B022B432F4D15402F4A16
:100B20002A400D8A2D0115434A8A12012A438280E8
:100B300084838968C163038470BD0000004801405C
:100B400070B5002200220022028C234B1340038444
:100B5000038C8288848B174D2540174E2E400C88BD
:100B6000240234431D4D1D408B891E032E434B88A8
:100B70001B0333430C4DA84204D1194D15400A8A7A
:100B800092012A438280848389680164038470BD52
:100B9000FDFF0000FEFF0000FBFF0000FCFF000067
:100BA0007FFF0000F7FF0000002C0140FFFE000067
:100BB000EFFF0000FF8F0000FFFC0000DFFF0000E0
:100BC00000400140FFFD0000FFFB0000BFFF0000F0
:100BD0008FFF0000FFF70000FFEF0000FFDF0000C5
:100BE000FFBF000030B400220F228B079B0F0424AC
:100BF00063439A40104BC9B28C1004256C431B59B7
:100C000093430D4AC9B28C1004256C4313510A4A10
:100C1000C9B28B1004246343D258C0B28B079B0F18
:100C20000424634398401043034AC9B28910042343
:100C30005943505030BC70470800014000B50021B6
:100C400027498279002A35D0254A126803689A43D9
:100C5000234B1A60234A126803689A43214B1A6097
:100C6000027989180A68036813430B601E490968F2
:100C7000026891431C4A11601C490968026891434B
:100C80001A4A1160417910290CD117490968026884
:100C90000A4315490A601549096800680843134961
:100CA00008600DE00E49427989180A68006810430F
:100CB000086005E0027989180A68006882430A60C2
:100CC00000BD00B500210A4909680840002801D08C
:100CD000012000E00020C0B200BD05490860704757
:100CE0000004014004040140080401400C040140D8
:100CF0001404014010B500218178002925D017493E
:100D00000278921004235A438958FF2203789B07E4
:100D10009B0F082463439A40914342789201D2B2D8
:100D200003789B079B0F082463439A400A430B49AF
:100D300003789B1004246343CA5001210078C00645
:100D4000C00E81400648016006E001210078C0061F
:100D5000C00E81400348016010BD000000E400E0C7
:100D600000E100E080E100E07047FEE780B54F4819
:100D70000068012101434D4801604D4800684D491C
:100D800001404B480160494800684B4901404748D1
:100D900001604648006849490140444801604448B0
:100DA00000684749014042480160464800680F21F9
:100DB0008843444908604448006844490140424827
:100DC00001604348006801218843414908600020D0
:100DD0004049086000F001F801BDC0B50020019055
:100DE00000200090314800688021490201432F48CB
:100DF00001602E4800688021890208400090019817
:100E0000401C01900098002804D10198A021C9013C
:100E10008842EED125480068800302D50120009069
:100E200001E000200090009801283DD12A48006888
:100E3000102101432848016027480068012101432F
:100E4000254801601A480068194908601848006878
:100E5000174908601648006820490140144801609D
:100E600013480068882149030143114801600F4875
:100E700000688021490401430C4801600B48006868
:100E80008001FBD50A4800680321884308490860AF
:100E900007480068022101430548016004480068D2
:100EA0000C2101400829F9D103BD000000100240C7
:100EB000041002400CB8FFF8FFFFF6FEFFFFFBFF37
:100EC000FFFFC0FF2C10024030100240ACFEFFFFBD
:100ED000341002400810024000200240FF7FC0FF93
:100EE00030B501684118446862088A188368E407CD
:100EF0000DD54C461B190AE00C7864B2491C0D78DC
:100F0000491C1D705B1C002C05D5641CF9D1914255
:100F1000F2D10C3030BD641EF1D5F8E70548064922
:100F200000220260001D8842FBD304488047044829
:100F30000047000000000020FF1F00206D0D00088A
:100F4000D10F000810B5074979441831064C7C448C
:100F5000163404E0081D0A68891888470100A14278
:100F6000F8D110BD080000001400000075FFFFFF5D
:100F70009C0000003C0000000000002000F00BF886
:100F8000002801D0FFF7DEFF002000BF00BFFFF701
:100F9000E9F800F002F80120704780B500F002F88F
:100FA00001BDFEE70746384600F002F8FBE7FEE722
:100FB00080B500BF00BF024A11001820ABBEFBE79E
:100FC00026000200704700B5FEE770477047704783
:100FD00000BF00BF00BF00BFFFF7D0FFFEE7FEE786
:100FE000FEE7FEE7FEE7FEE7FEE7FEE7FEE7FEE7D9
:100FF000FEE7FEE7FEE7FEE7FEE7FEE7FEE7FEE7C9
:10100000FEE7FEE7FEE7FEE7FEE7FEE70001FD0084
:101010001011121418212224284142444803060CBE
:0A1020000960FC00026CDC02D00045
:0400000508000FD10F
:00000001FF
